:020000040800F2
:100000004007002041020008490200084B02000896
:100010004D0200084F0200085102000800000000D5
:100020000000000000000000000000005302000873
:10003000550200080000000057020008590200089D
:100040005B0200085B0200085B0200085B0200081C
:100050005B0200085B0200085B0200085B0200080C
:100060005B0200085B0200085B0200085B020008FC
:100070005B0200085B0200085B0200085B020008EC
:100080005B0200085B0200085B0200085B020008DC
:100090005B0200085B0200085B0200085B020008CC
:1000A0005B0200085B0200085B0200085B020008BC
:1000B0005B0200085B0200085B0200085B020008AC
:1000C0005B0200085B0200085B0200085B0200089C
:1000D0005B020008A91600085B0200085B0200082A
:1000E0005B0200085B0200085B0200085B0200087C
:1000F0005B0200085B0200085B0200085B0200086C
:100100005B0200085B0200085B0200085B0200085B
:100110005B0200085B0200085B0200085B0200084B
:100120005B0200085B0200085B0200085B0200083B
:100130005B0200085B0200085B0200085B0200082B
:100140005B0200085B0200085B0200085B0200081B
:100150005B0200085B0200085B0200085B0200080B
:100160005B0200085B0200085B0200085B020008FB
:100170005B0200085B0200085B0200085B020008EB
:100180005B0200085B02000800F002F800F049F88A
:100190000AA090E8000C82448344AAF10107DA45E2
:1001A00001D100F03EF8AFF2090EBAE80F0013F0EB
:1001B000010F18BFFB1A43F001031847FC1A000097
:1001C0001C1B0000103A24BF78C878C1FAD8520727
:1001D00024BF30C830C144BF04680C6070470000C1
:1001E0000023002400250026103A28BF78C1FBD840
:1001F000520728BF30C148BF0B607047662901F025
:100200000F85002070471FB501F005FD00F0F0FAE2
:1002100004000020002101F071FCE0601FBD10B55A
:1002200010BD00F001FC1146FFF7EDFF01F0B8FB37
:1002300000F01FFC03B4FFF7F2FF03BC01F037FB33
:100240000948804709480047FEE7FEE7FEE7FEE76A
:10025000FEE7FEE7FEE7FEE7FEE7FEE704480549A6
:10026000054A064B70470000451500088901000843
:1002700040010020400700204003002040030020F0
:100280000FB4044910B503AA029800F09FFA10BCFD
:100290005DF814FB140000202DE9F0474FF0000A30
:1002A00089460446C0F820A02046E1688847002817
:1002B00076D0252806D0D4E901219047206A401C39
:1002C0002062F1E7E168204600258847C4F81CA0B9
:1002D00006460027C4F818A02A2E09D0304601F09F
:1002E000DFFA38B304EB8708303EC8F8186019E02D
:1002F00059F8041B204604EB87029161E1688847A6
:10030000012F064618D1E069002820DA25F02005E3
:100310001DE0D8F8180000EB800006EB40003038F4
:10032000C8F818002046E1688847064601F0B8FA88
:100330000028EED1012F0AD02E2E08D12046E168E8
:1003400088477F1C0646022F45F02005C4DBA069C4
:10035000002803DA404245F00105A061E80701D01A
:1003600025F01005B6B1A6F14100192802D82036B3
:1003700045F400654A463146204625604D46FFF764
:100380003DFF58B1012806D0ED1D25F0070000F112
:10039000080989E704E005F1040985E730468AE7A2
:1003A000206ABDE8F08770477047704770472DE9B5
:1003B000FF4F0C461E464FF0FF378BB0D2E90001CD
:1003C000DDF860800A908A46C1F30A5505B93D46BA
:1003D000002108464FF00000BAF1000F00F4400081
:1003E00005DA00EB80004FF4400101EA50004FEACB
:1003F0009059B9F1010F00DDB9460A9850EA4A0058
:100400000ED044F61050A5F2FF3545432F14B8F135
:10041000000F1ED07542291E1EDDC9F100021CE02E
:10042000B8F1010F4FF0000001D0302103E0F2439A
:1004300005E02154401CB042FBDB30460022002185
:1004400021540B99C1F80880C1E900200FB0BDE824
:10045000F08FBD1B6D1CDEE74A4600DA694206A834
:1004600000F068FA06AB93E8070003AB83E80700E7
:1004700050460A9900F046FB8DE80700A0F50050B1
:100480001F3800900398002D0ADD42F21F014A46F2
:100490000844002303A90390684600F0AFFD09E07B
:1004A000A0F500504A461F38002303A90390684670
:1004B00000F0B9FD8DE807000004000C03D04FF0F8
:1004C000FF30410800E01046B8F1000F03D00022D1
:1004D000009215461EE0751E05D400F08DF93032ED
:1004E00062556D1EF9D5B3460122084302D00022A1
:1004F0007F1C04E02078302801D100227F1E002AD2
:10050000099784D01DE0112D07DA00F075F930321B
:1005100062556D1C50EA0102F5D1084302D00098E3
:10052000C8B10EE00021681E05E0235C625C6354E4
:100530002254401E491C8142F7DBAB46A81B401EDB
:100540000990002004F80B000B98099AC0F8088065
:10055000C0E9002B7AE711264FF0000857E72DE994
:10056000F04F88460446D21D22F0070191B0D1E930
:100570000001CDE90A0101F07BF902460B98C00F9A
:1005800001D02D2007E02068810701D52B2002E053
:10059000202101EAC000032A099001D0072A05DBC7
:1005A00003464146204600F085F90BE1207880069D
:1005B00001D5E06900E00620B8F1650F814606D05C
:1005C000B8F1660F18D0B8F1670F70D131E0002094
:1005D000B9F1110F009001DB112301E009F10103D2
:1005E0000AAA01A90CA8FFF7E2FEDDE90C700026BB
:1005F00009F10105834647E001204B4600904FF08A
:1006000000470AAA01A90CA8FFF7D1FEDDE90DB049
:100610000C995D46002610B909F101000D18B9EBDF
:10062000050003D4C0F1FF3609F10105A5EB09006F
:100630002BE0B9F1010F01DA4FF001090020B9F107
:10064000110F0090484601DD112300E003460AAA7D
:1006500001A90CA8FFF7ABFEDDE90C704D460026A2
:100660008346207800070AD4AB4500DA5D4601A82E
:10067000012D04DD411911F8011C302907D04F4527
:1006800002DA17F1040F04DA012082460FE06D1E32
:10069000EEE7002F02DCED1B3E4403E0781CA8428D
:1006A00000DD7D1CB81B00F1010A4FF000472078E7
:1006B000000703D4AA4501DB4FF0FF3A0021B7F150
:1006C000004F0DF143088DF8431024D002202B2356
:1006D000002F01DA7F422D230A21021EA0F1010022
:1006E00000DC5FB197FBF1FC97FBF1F201FB1C7C96
:1006F00017460CF1300C08F801CDEEE7A8F1010027
:1007000003702188090501D5452100E06521A0F18C
:10071000010800F8011C09980FA9A1EB0807FF1DAB
:1007200000B10120411901EBEA70A1693844081AAF
:10073000401EA0612078C00602D42046AFF300809E
:10074000099828B1D4E901219047206A401C206211
:100750002078C00622D52046AFF300801EE0002E90
:1007600004DBB34502DD01A8805D00E03020D4E960
:1007700001219047206A401C2062761CAAF10100EA
:100780005FEA000A0AD100F033F8C0680168405CF3
:10079000D4E901219047206A401C2062281EA5F15F
:1007A0000105DCDC07E0D4E9012118F8010B9047D2
:1007B000206A401C2062381EA7F10107F3DC2046A6
:1007C000AFF30080032011B041E60000074B70B585
:1007D0000D467B4400F05BF80446284600F01CF907
:1007E00010B14FF0FF3070BD204670BDB711000052
:1007F000004870470001002030B5B0F10A024FEA0E
:10080000900E71F100034EEA817EB0EB0E0061EBB9
:1008100091014FEA101E4EEA017E10EB0E0041EBF3
:1008200011114FEA102E4EEA016E10EB0E0041EB53
:1008300011214FEA104E4EEA014E10EB0E0041EB33
:100840001141401841F100014FEAD00040EA4170E7
:100850004FEAD10110EB80054FEA810444EA90741D
:1008600044EB01046D1944EB0404521BA3414FF007
:10087000000348BF0A3200D530BD401C41F10001E1
:1008800030BD000001694A1C02610878704700B55C
:100890008FB0CDE901310021059105497944CDE9B9
:1008A000031011466846FFF7F7FC0FB000BD0000CB
:1008B000E5FFFFFF2DE9F0411F46044603260168CE
:1008C000072A01F4006004DB08B116A505E016A5AF
:1008D00003E008B115A500E015A521F01000206087
:1008E000A069C01EA0610FB1401EA0612046AFF3F9
:1008F00000804FB1D4E9012138469047206A401C5E
:100900002062C01C206206E0206AFAE7D4E90121D7
:1009100015F8010B9047761EF8D22046AFF3008001
:10092000BDE8F0814E414E006E616E00494E4600BA
:10093000696E66002DE9F047814616468AB0354853
:1009400078440DC88DE80D0032487844801C03AC13
:100950000DC884E80D0041F69B300844372190FB18
:10096000F1F290FBF1F5A5F1800501FB12041B3CAF
:1009700002D56442012000E00020DFF898A0804604
:100980000027FA44AAF1BE0A0EE0E0070AD0324678
:10099000684607EB470101230AEB810100F043FBA6
:1009A0008DE8070064107F1C002CEED1194F7F44A6
:1009B000AE3F19E0E80715D007EB04100DF1180A57
:1009C00090E80E008AE80E00C068F04201D1981944
:1009D00008903246012306A903A800F024FB03ABCC
:1009E00083E807006D10641C002DE3D14FF0010374
:1009F00032466946B8F1000F03A802D000F0FEFAB3
:100A000001E000F010FBC9E90001C9F808200AB0B4
:100A1000BDE8F0875C130000007B00F080007047A9
:100A200000487047E00000207546FFF7F9FFAE462A
:100A300005006946534620F00700854618B020B5EA
:100A4000FFF70CFCBDE820404FF000064FF0000718
:100A50004FF000084FF0000B21F00701AC46ACE866
:100A6000C009ACE8C009ACE8C009ACE8C0098D46D3
:100A7000704710B50446AFF300802046BDE8104033
:100A8000FFF7D8BB4FF0013C50F8042B51F8043B62
:100A90009A4221D1A2EB0C03934313EACC1317D152
:100AA00050F8042B51F8043B9A4215D1A2EB0C03E9
:100AB000934313EACC130BD150F8042B51F8043BA9
:100AC0009A4209D1A2EB0C03934313EACC13DBD077
:100AD0004FF00000704700BFD01A01BAB1FA81F19F
:100AE00001F0180122FA01F0CB40C1F12001DBB284
:100AF000C0B2C01A2CFA01F3D11A914311EAC31102
:100B0000E6D170475FEA400C08BF91F0000F4FEA52
:100B10008C234FEAC12243EA51514FEA1C5018BFBF
:100B200000F5F0404FEA300018BF41F000415FEAA5
:100B30006C5C00F02980BCF1FF3F08BF40F08040B2
:100B40007047130C06BF12044FF0100C4FF0000C4E
:100B5000130E04BF12020CF1080C130F04BF120194
:100B60000CF1040C930F04BF92000CF1020CD30F94
:100B700004BF52000CF1010C11464FF00002A0F12D
:100B80001F00A0EB0C00704711F0004F08BF70472A
:100B900031F000413FF4D5AF0B0C06BF09044FF014
:100BA000100C4FF0000C0B0E04BF09020CF1080CE6
:100BB0000B0F04BF09010CF1040C8B0F04BF89005B
:100BC0000CF1020CCB0F04BF49000CF1010CCCF16D
:100BD0002003A0EB0C0022FA03F302FA0CF241EA24
:100BE000030100F10100704720F07F4C80EA030010
:100BF00023F07F47ACEB070303F57C5300F0004084
:100C000003F1FF032DE980494FEA154B09B44FEA80
:100C1000144325EA0B4E24EA03480FF2042606EBA0
:100C2000132749083E785FEA320203FB0667C7F5DF
:100C3000000707FB06F64FEA54374FEAD64606F19F
:100C4000020607FB066CCCF1005C4FEA1C472CEA5D
:100C5000074C07FB06F40CFB06F504EB15464FEAC0
:100C6000961634BF00204FF000404FEAD13706FB04
:100C700007FC4FEA1C4C0CFB0BF7D21B03FB0CF7D9
:100C800061EB07010CFB0EF7B0EB074072EB17426C
:100C90000CFB08F734BFA2EB0742B2EB074261EB53
:100CA00017414FEA0C444FEA910706FB07FC4FEA55
:100CB0001C4C0CFB0BF7B0EBC74072EB573203FB3D
:100CC0000CF734BFA2EBC742B2EBC74261EB57311E
:100CD0000CFB0EF7B0EBC70072EB57720CFB08F77A
:100CE00034BFA2EBC702B2EBC70261EB5771039F9F
:100CF0004FEA816141EA921104EBCC044FEAD1370B
:100D00004FEA826206FB07FC42EA90124FEA8060DB
:100D10004FEA1C4C0CFB0BF7D21B03FB0CF761EBEF
:100D200007010CFB0EF7B0EB074072EB17420CFB10
:100D300008F734BFA2EB0742B2EB074261EB174161
:100D40004FEA8C554FEA910704EB9C2406FB07FC05
:100D50004FEA1C4C0CFB0BF7B0EBC74072EB573261
:100D600003FB0CF734BFA2EBC742B2EBC74261EB07
:100D700057310CFB0EF7B0EBC70072EB57720CFB50
:100D800008F734BFA2EBC702B2EBC70261EB5771A1
:100D900015EB4C254FEA816141EA92114FEA8262DC
:100DA0004FEAD13742EA901206FB07FC44F10004F7
:100DB0004FEA80604FEA1C4C0CFB0BF7D21B03FB85
:100DC0000CF761EB07010CFB0EF7B0EB074072EB81
:100DD00017420CFB08F734BFA2EB0742B2EB074205
:100DE00061EB174115EB1C154FEA813141EA924145
:100DF0004FEA823242EA90424FEA80304FEA0C7664
:100E000044F1000448EA03434EEA0B484FF0000E59
:100E1000B2EB080C71EB030724BF624639464EEB78
:100E20000E0E4FF0000B0018524149414BEB0B0BDB
:100E3000B2EB080C71EB03077BF1000B24BF624699
:100E400039464EEB0E0E4FF0000B0018524149414F
:100E50004BEB0B0BB2EB080C71EB03077BF1000BB8
:100E600024BF624639464EEB0E0E51EA020718BF08
:100E700046F0010616EB0E7655F1000254F1000122
:100E800003D5BDE88901BDE80088BDE88901BDE85A
:100E90000048B619524141EB0101A3F1010370472B
:100EA00080807F7E7D7C7B7A7978777676757473A7
:100EB000727171706F6E6E6D6C6C6B6A6A69686866
:100EC000676666656464636362616160605F5F5EFC
:100ED0005E5D5D5C5C5B5B5A5A5959585857575672
:100EE00056555555545453535252525151505050D7
:100EF0004F4F4F4E4E4D4D4D4C4C4C4B4B4B4A4A29
:100F00004A4949494848484747474746464645456C
:100F100045444444444343434342424242414141A5
:100F2000002B9C4630D477002BD01CB54FEA3707F6
:100F300003B44FF010004FF01001BAF1000F06D0CB
:100F4000BCF1000FDCBF40F0080040F008014FF09A
:100F500000000FBCBDE810400BF1010BBBF1010F0D
:100F600008BF5FEA170722BF12F1010211F1010168
:100F70004FF0004143F1000300F0004043EA00005D
:100F80007047F9D35708D0E746EA064613F1400FF9
:100F90004FEA16461FDD13F1200FDFBF16430A4646
:100FA000002120335B42BED0C3F1200746EA06464B
:100FB00002FA07F74FEA164646EA0706C3F120078A
:100FC00022FA03F201FA07F721FA03F14FF00003C6
:100FD00042EA0702A7E746EA020646EA06464FEA61
:100FE000164646EA0106BCBF46EA0646360C4FF0F6
:100FF00000034FF000024FF0000194E72DE9804C10
:101000009A46934670B491E8380007C831EA400C1C
:1010100048BF34EA430C03D5FFF7E6FDFFF780FF36
:10102000F0BCBDE8008C2DE9804C9A46934670B424
:1010300091E8380007C810F0804F08BF13F0804FC8
:1010400003D100F005F8FFF76BFFF0BCBDE8008CA2
:1010500020F07F4780EA030023F07F4C07EB0C036E
:10106000A3F57C5300F00040A3F1FE0392F0000FC3
:1010700000F0B38095F0000F00F077802DE9014972
:101080004FEA11404FEA144621EA004800FB06FCF3
:1010900024EA064708FB06F607FB08F800FB07F7FB
:1010A00018EB06484CEB164C4FEA124B18EB07486E
:1010B0004FEA15464CEB174022EA0B4E0BFB06FCA1
:1010C00025EA06470EFB06F607FB0EFE0BFB07F7AD
:1010D0001EEB064E4CEB164C4FF000061EEB074E77
:1010E0004CEB174B18EB0B0840F1000018EB0E0B04
:1010F00058EB000840F100008F1A4FF000013CBF90
:10110000C943661B14BFB5EB040C00213CBFC943A7
:10111000F61B4FEA17444EEA8E0E27EA04454FEAC3
:101120001C4704FB07622CEA074C05FB07F70CFB86
:1011300005F604FB0CFC16EB074642EB174216EBD8
:101140000C4642EB1C421BEB060658EB02024141E7
:1011500046EA9E0601D5BDE80189B619524141EB28
:101160000101A3F10103BDE801894FEA14454FEAEB
:10117000114724EA054621EA074C05FB07F406FB64
:1011800007F70CFB06F105FB0CFC11EB074144EBE8
:1011900017444FEA124711EB0C4144EB1C4422EA7E
:1011A000074C05FB07F206FB07F70CFB06F605FBF1
:1011B0000CFC16EB074642EB174216EB0C4642EBD3
:1011C0001C456A1854F1000148BF7047B6195241D6
:1011D00041EB0101A3F10103704795F0000F37D0F7
:1011E0004FEA11424FEA144721EA024624EA074C2B
:1011F00002FB07F106FB07F70CFB06F402FB0CFCF5
:1012000014EB074441EB17414FEA154714EB0C442C
:1012100041EB1C4125EA074C02FB07F506FB07F7EB
:101220000CFB06F602FB0CFC16EB074645EB1745DC
:1012300016EB0C4645EB1C42121951F1000148BF58
:101240007047B619524141EB0101A3F10103704708
:101250004FEA14454FEA114724EA054621EA074CB4
:1012600005FB07F106FB07F70CFB06F24FF0000643
:1012700005FB0CFC12EB074241EB174112EB0C4251
:1012800051EB1C4148BF7047921841EB0101A3F19B
:10129000010370472DE9F041002201274FF0030CB4
:1012A00007FA02F50B682B40AB422CD106685300BD
:1012B0000CFA03F4A64306600E79D0F800809E4035
:1012C00046EA080606600E79012E01D0022E12D1E0
:1012D0008668A64386604E79D0F808809E4046EA2C
:1012E000080686604668AE43466045688E7996403B
:1012F000B6B235434560C568A543C560CC799C400E
:10130000C3681C43C460521C102AC9D3BDE8F081D5
:1013100010B54B07DB0E9A40C90800EB8100016A4B
:101320000F249C40A1430162016A1143016210BD78
:1013300030B50F23C27801250178002A1FD0154A45
:10134000126802F4E062C2F5E062C2F30722C2F161
:101350000404D3404278A24084781C401443220104
:1013600001F1E02181F80024007800F01F018D4098
:101370004009800000F1E020C0F8005130BD01F0CC
:101380001F0085404809800000F1E020C0F880512E
:1013900030BD00000CED00E0054A002903D01168C3
:1013A000014311607047116881431160704700006C
:1013B00030380240054A002903D01168014311600A
:1013C0007047116881431160704700004038024047
:1013D000054A002903D01168014311607047116864
:1013E00081431160704700004438024070B5244BBF
:1013F000196801F00C01234C00291ED06610042945
:101400001DD008291DD00460196801F0F0010909F8
:101410001D4A545C0168E14041601C6804F4E054DA
:10142000A40A145D21FA04F484601B6803F4604389
:101430005B0BD25CD140C16070BD0460E4E7066024
:10144000E2E70F4A121F1168C1F38055116801F0DD
:101450003F0135B1B6FBF1F11468C4F38814614360
:1014600005E0B4FBF1F11468C4F388146143126819
:10147000C2F30142521C5200B1FBF2F10160C3E71A
:10148000083802400024F400000000200CB50022BF
:10149000019200922749086840F4803008604FF4B8
:1014A000A043086800F4003000900198401C0190AF
:1014B000009810B901989842F3D10868800302D5CA
:1014C0000120009000E000920098012831D11948D5
:1014D0004030026842F0805202601748026842F4CD
:1014E000404202601348083002680260026842F419
:1014F00000420260026842F4A0520260021F0F4BD9
:1015000013600A6842F080720A600A689201FCD592
:101510000B4A40F205711160016821F0030101607E
:10152000016841F0020101600168C1F381010229F3
:10153000FAD10CBD0038024000700040085440074A
:10154000003C024010B51248016841F4700101608E
:101550001048016841F0010101600E4A0021083283
:10156000116002680C4B1A400260031D0B4A1A609E
:10157000026822F48022026006480C300160FFF706
:1015800085FF03494FF000608039086010BD0000FE
:1015900088ED00E000380240FFFFF6FE1030002426
:1015A000002904D0018841F00101018070470188C1
:1015B00021F001010180704730B5028C22F0010258
:1015C0000284058C8388028B22F0700222F00302D1
:1015D0000C88144325F002028D8915434A882A435A
:1015E0000D4DA84202D00D4DA8420FD122F00805A2
:1015F000CA892A4322F004058A882A4323F4807387
:1016000023F400730D8A1D434B8A2B43838004838C
:1016100089684163028430BD00000140000401403C
:10162000028B22F008020A430283704730B5028819
:10163000164C174DA0420DD0A8420BD0B0F1804FF0
:1016400008D0144B984205D0134B984202D0134B4C
:10165000984203D122F070034A881A43104B9842F3
:1016600006D0104B984203D022F440730A891A43E3
:1016700002804A68C2620A880285A04201D0A8425C
:1016800001D1897A01860121818230BD00000140AB
:10169000000401400004004000080040000C00402D
:1016A000001000400014004070B5164C40F2255167
:1016B000204600F040F800280ED0204600F0D4F874
:1016C000C1B2114A1088030406D444044FF0000349
:1016D00007D50A2901D0138070BD40F40040108066
:1016E00070BD0D290AD0094DC0F30D042955401CC9
:1016F00080B21080C728F3D9138070BD40F48040B9
:10170000108070BD00100140100000201800002063
:10171000002904D0818941F4005181817047818979
:1017200021F40051818170470246002012880A424C
:1017300000D00120704770B5002440F66A12C1F352
:10174000421301F01F05012606FA05F2012B0CD009
:10175000022B0DD0838A1340090A8E400088304046
:101760000BB100B10124204670BD83891340F3E71B
:10177000038A1340F0E710B540F66A13C1F3421331
:1017800001F01F040121A140012B07D0022B07D03B
:1017900014303AB102680A43026010BD0C30F8E719
:1017A0001030F6E702688A43026010BD7FB5044638
:1017B0000D46208A20F44051E88808432082A08901
:1017C00041F20C618843A9882A8911436A8902433E
:1017D0001143A181A08A20F44071A8890843A08206
:1017E0006846FFF703FE1E48844202D01D4884422B
:1017F00001D1039800E00298A189090408D500EB03
:10180000C00101EB001029684900B0FBF1F007E0CE
:1018100000EBC00101EB001029688900B0FBF1F07A
:101820006422B0FBF2F109010B096FF018056B435C
:1018300000EB8300A3891D044FF0320307D503EBAF
:10184000C000B0FBF2F000F00700084306E003EB35
:101850000010B0FBF2F000F00F00084320817FBDC4
:1018600000100140001401408088C0F30800704758
:1018700003B401984100009850EAC12018BF042029
:101880004A0D18BF40F0010040F2FF72B2EB515F09
:1018900008BF40F00200012808BF052002B07047D1
:1018A00030380A2801D20120704700207047704765
:1018B00010B5224C20212046FFF736FF00283BD0F0
:1018C0002046FFF7D1FFA104332806D04FF47A72E7
:1018D00034280BD0352810D010E0486BCA6A143079
:1018E00090420BD8486B1430486307E0486B904235
:1018F00004D3486B1438486300E04A63486B00EE39
:10190000100AC86AF8EE400A401C00EE100AB8EE51
:10191000401A80EE810ADFED0A0A20EE200A10EE5E
:10192000100A00F007F941EC100BBDE8104053EC31
:10193000102B04A0FEF7A4BC10BD00000010014055
:101940000000C842E58DA0E7A9BAE6AF943A202589
:101950002E326625250A000010B501211020FFF760
:1019600029FD0848016841F0100101600648532133
:1019700001854FF6FF71C162018841F001010180CC
:1019800010BD0000403802400010004003490A88A2
:101990005206FCD5C2B28A80704700000010014098
:1019A0004FF4165000F054F8FFF7D6FF00F006F899
:1019B00000242046FFF77CFFFBE7000070B58AB0EB
:1019C00001210846FFF7F6FC01210846FFF7E4FC79
:1019D0002020089002208DF824008DF82500002496
:1019E0008DF8264001258DF82750184E08A930465D
:1019F000FFF750FC012205213046FFF789FC5320F8
:101A0000ADF81400ADF8164044F61F600690ADF82E
:101A10001C40AE0705A93046FFF708FE01213046FD
:101A2000FFF7BEFD6021ADF80010ADF802504FF495
:101A30007A710291ADF80C4069463046FFF7BCFD63
:101A400008213046FFF7ECFD0AB070BD00000240EF
:101A5000F0B587B0054601210846FFF79DFC01213E
:101A60001020FFF7B5FC4FF4C061059102218DF8FD
:101A700018108DF8191000248DF81A4001268DF8E1
:101A80001B601C4F05A93846FFF704FC07220921FB
:101A90003846FFF73DFC07220A213846FFF738FC9D
:101AA0000195ADF80840ADF80A40ADF80C400C20A7
:101AB000ADF80E00ADF810400F4C01A92046FFF71D
:101AC00075FE01212046FFF723FE25218DF8001029
:101AD00003218DF801108DF802108DF8036068461F
:101AE000FFF726FC012240F225512046FFF743FE76
:101AF00007B0F0BD000002400010014010B5002901
:101B00000AD00878002807D005487844FEF7BAFFC5
:101B1000002801D0002010BD0248784410BD00000C
:101B2000CE010000C60100000808A0F500114FEA30
:101B30003101704743004FEAD30C4FEA3C0C43405D
:101B40001FBF40070CF1605113F0FE4F70471CF0AF
:101B5000006F03D100200CF0004170470CF00043EF
:101B600043EA507010B540EACC0000F00EF800BF18
:101B7000000000924FEA0001FFF7D6BF4FF000418E
:101B80004FF00000A1F5002170470EF1020E2EF07B
:101B9000030E5EF8044B244204D44FEA4102B2F132
:101BA0007F4F11D84FEA4003B3F17F4F0CD80ED1CD
:101BB0004FEAD07CB2F17F4F0CEB4C0C0CF1020CD5
:101BC00008BF4CEBD17C04E04FF0080C01E04FEA79
:101BD000D17C0CEB4C0324FA03F404F00704B4F1B9
:101BE000040C06D20EEB840CBDE810404CF0010C46
:101BF0006047DFE80CF0070802024FF00040A0F554
:101C0000800010BD0846420018BFD2F1807288BF24
:101C100000F0004010BD4FF04070E1EE100A704738
:101C2000FEF79DBC02400000000000A00000000084
:101C300005400000000000C8000000000C4000004B
:101C40000000409C00000000194000000020BCBEC5
:101C50000000000034400000BFC91B8E00000004DB
:101C6000B5400000504BCFD06607E2CF0100000026
:101C70006C4100003E8251AADFEEA7340100000053
:101C8000D9420000DCB5A0E23A301F97FFFFFFFF0A
:101C9000B4450000FD25A0C8E9A3C14FFFFFFFFF29
:101CA000FF3F00000000008000000000FF3F000038
:101CB0000000008000000000F41C0008000000206C
:101CC00018000000C40100080C1D000818000020C6
:101CD00028070000E00100081C000000430000008D
:101CE000F8FFFFFF0C0000000E0000000F000000D6
:101CF0002E000000000000000102030401020304A2
:0C1D0000060708090000000000000000B9
:0400000508000241AC
:00000001FF
