:020000040800F2
:1000000040070020290200083102000833020008DE
:10001000350200083702000839020008000000001D
:100020000000000000000000000000003B0200088B
:100030003D020008000000003F02000841020008E5
:10004000430200084302000843020008430200087C
:10005000430200084302000843020008430200086C
:10006000430200084302000843020008430200085C
:10007000430200084302000843020008430200084C
:10008000430200084302000843020008430200083C
:10009000430200084302000843020008430200082C
:1000A000430200084302000843020008430200081C
:1000B000430200084302000843020008430200080C
:1000C00043020008430200084302000843020008FC
:1000D00043020008ED06000843020008430200083E
:1000E00043020008430200084302000843020008DC
:1000F00043020008430200084302000843020008CC
:1001000043020008430200084302000843020008BB
:1001100043020008430200084302000843020008AB
:10012000430200084302000843020008430200089B
:10013000430200084302000843020008430200088B
:10014000430200084302000843020008430200087B
:10015000430200084302000843020008430200086B
:10016000430200084302000843020008430200085B
:10017000430200084302000843020008430200084B
:10018000430200084302000800F002F800F03CF8C7
:100190000AA090E8000C82448344AAF10107DA45E2
:1001A00001D100F031F8AFF2090EBAE80F0013F0F8
:1001B000010F18BFFB1A43F0010318478408000021
:1001C000A4080000103A24BF78C878C1FAD85207B2
:1001D00024BF30C830C144BF04680C6070470000C1
:1001E0000023002400250026103A28BF78C1FBD840
:1001F000520728BF30C148BF0B6070471FB500F0E1
:1002000019FC1FBD10B510BD00F031F81146FFF705
:10021000F5FF00F065FB00F04FF803B4FFF7F2FFC5
:1002200003BC00F041FB0000094880470948004733
:10023000FEE7FEE7FEE7FEE7FEE7FEE7FEE7FEE796
:10024000FEE7FEE704480549054A064B70470000F3
:1002500089050008890100084001002040070020AE
:1002600040030020400300207047704770477546E8
:1002700000F02CF8AE4605006946534620F0070012
:10028000854618B020B5FFF7DDFFBDE820404FF0F0
:1002900000064FF000074FF000084FF0000B21F070
:1002A0000701AC46ACE8C009ACE8C009ACE8C0093D
:1002B000ACE8C0098D46704710B50446AFF3008026
:1002C0002046BDE81040FFF7A8BF00000048704777
:1002D000DC0000202DE9F041002201274FF0030C43
:1002E00007FA02F50B682B40AB422CD1066853008D
:1002F0000CFA03F4A64306600E79D0F800809E4005
:1003000046EA080606600E79012E01D0022E12D1AF
:100310008668A64386604E79D0F808809E4046EAFB
:10032000080686604668AE43466045688E7996400A
:10033000B6B235434560C568A543C560CC799C40DD
:10034000C3681C43C460521C102AC9D3BDE8F081A5
:1003500010B54B07DB0E9A40C90800EB8100016A1B
:100360000F249C40A1430162016A1143016210BD48
:1003700030B50F23C27801250178002A1FD0154A15
:10038000126802F4E062C2F5E062C2F30722C2F131
:100390000404D3404278A24084781C4014432201D4
:1003A00001F1E02181F80024007800F01F018D4068
:1003B0004009800000F1E020C0F8005130BD01F09C
:1003C0001F0085404809800000F1E020C0F88051FE
:1003D00030BD00000CED00E0054A002903D0116893
:1003E000014311607047116881431160704700003C
:1003F00030380240054A002903D0116801431160DA
:100400007047116881431160704700004038024016
:10041000054A002903D01168014311607047116833
:1004200081431160704700004438024070B5244B8E
:10043000196801F00C01234C00291ED0224E04291A
:100440001DD008291DD00460196801F0F0010909C8
:100450001E4A545C0168E14041601C6804F4E054A9
:10046000A40A145D21FA04F484601B6803F4604359
:100470005B0BD25CD140C16070BD0460E4E70660F4
:10048000E2E70F4A121F1168C1F38055116801F0AD
:100490003F0135B1B6FBF1F11468C4F38814614330
:1004A00005E0B4FBF1F11468C4F3881461431268E9
:1004B000C2F30142521C5200B1FBF2F10160C3E7EA
:1004C000083802400024F40040787D01000000203C
:1004D0000CB50022019200922749086840F4803050
:1004E00008604FF4A043086800F4003000900198C1
:1004F000401C0190009810B901989842F3D1086807
:10050000800302D50120009000E0009200980128AD
:1005100031D119484030026842F0805202601748D9
:10052000026842F4404202601348083002680260E8
:10053000026842F400420260026842F4A052026083
:10054000021F0F4B13600A6842F080720A600A684B
:100550009201FCD50B4A40F205711160016821F04F
:1005600003010160016841F0020101600168C1F30B
:1005700081010229FAD10CBD003802400070004010
:1005800019544007003C024010B51248016841F47C
:10059000700101601048016841F0010101600E4ADC
:1005A00000210832116002680C4B1A400260031DE2
:1005B0000B4A1A60026822F48022026006480C305E
:1005C0000160FFF785FF03494FF000608039086044
:1005D00010BD000088ED00E000380240FFFFF6FE8D
:1005E00010300024002904D0018841F0010101806D
:1005F0007047018821F001010180704730B5028CFD
:1006000022F001020284058C8388028B22F07002A2
:1006100022F003020C88144325F002028D89154351
:100620004A882A430D4DA84202D00D4DA8420FD151
:1006300022F00805CA892A4322F004058A882A4341
:1006400023F4807323F400730D8A1D434B8A2B43DC
:100650008380048389684163028430BD00000140C7
:1006600000040140028B22F008020A430283704713
:1006700030B50288164C174DA0420DD0A8420BD0C1
:10068000B0F1804F08D0144B984205D0134B9842DC
:1006900002D0134B984203D122F070034A881A43C8
:1006A000104B984206D0104B984203D022F440736E
:1006B0000A891A4302804A68C2620A880285A042F7
:1006C00001D0A84201D1897A01860121818230BD01
:1006D0000000014000040140000400400008004008
:1006E000000C0040001000400014004070B5164C93
:1006F00040F22551204600F039F800280ED020465F
:1007000000F0CEF8C1B2114A1088030406D44404A4
:100710004FF0000307D50A2901D0138070BD40F4C3
:100720000040108070BD0D290AD0094DC0F30D04A2
:100730002955401C80B21080C728F3D9138070BDA2
:1007400040F48040108070BD001001401000002077
:1007500014000020002904D0818941F400518181D6
:100760007047818921F400518181704770B5002460
:1007700040F66A12C1F3421301F01F05012606FA82
:1007800005F2012B0CD0022B0DD0838A1340090AED
:100790008E40008830400BB100B10124204670BD6E
:1007A00083891340F3E7038A1340F0E710B540F65E
:1007B0006A13C1F3421301F01F040121A140012B70
:1007C00007D0022B07D014303AB102680A43026006
:1007D00010BD0C30F8E71030F6E702688A4302607B
:1007E00010BD00007FB504460D46208A20F440511C
:1007F000E88808432082A08941F20C618843A988D7
:100800002A8911436A8902431143A181A08A20F4F5
:100810004071A8890843A0826846FFF707FE1E487A
:10082000844202D01D48844201D1039800E002981E
:10083000A189090408D500EBC00101EB001029686B
:100840004900B0FBF1F007E000EBC00101EB001044
:1008500029688900B0FBF1F06422B0FBF2F10901D4
:100860000B096FF018056B4300EB8300A3891D048F
:100870004FF0320307D503EBC000B0FBF2F000F0FD
:100880000700084306E003EB0010B0FBF2F000F0B5
:100890000F00084320817FBD00100140001401407B
:1008A0008088C0F3080070477047000010B5012130
:1008B0001020FFF79FFD0848016841F0100101601A
:1008C0000648532101854FF6FF71C162018841F04E
:1008D0000101018010BD00004038024000100040BE
:1008E000FFF7E4FF4FF4165000F04EF800F002F866
:1008F000FEE7000070B58AB001210846FFF77AFDD7
:1009000001210846FFF768FD2020089002208DF89D
:1009100024008DF8250000248DF8264001258DF84F
:100920002750184E08A93046FFF7D4FC01220521B4
:100930003046FFF70DFD5320ADF81400ADF816401A
:1009400044F61F600690ADF81C40AE0705A930467E
:10095000FFF78EFE01213046FFF744FE6021ADF81F
:100960000010ADF802504FF47A710291ADF80C40CE
:1009700069463046FFF742FE08213046FFF772FE17
:100980000AB070BD00000240F0B587B005460121F5
:100990000846FFF721FD01211020FFF739FD4FF434
:1009A000C061059102218DF818108DF819100024EE
:1009B0008DF81A4001268DF81B601C4F05A938469A
:1009C000FFF788FC072209213846FFF7C1FC072200
:1009D0000A213846FFF7BCFC0195ADF80840ADF898
:1009E0000A40ADF80C400C20ADF80E00ADF81040F8
:1009F0000F4C01A92046FFF7F5FE01212046FFF725
:100A0000A9FE25218DF8001003218DF801108DF825
:100A100002108DF803606846FFF7AAFC012240F23D
:100A200025512046FFF7C2FE07B0F0BD000002408E
:100A3000001001404FF04070E1EE100A70470000D6
:100A4000600A00080000002014000000C401000833
:100A5000740A0008140000202C070000E0010008C0
:100A60000000000001020304010203040607080954
:040A70000000000082
:0400000508000229C4
:00000001FF
